:020000040000FA
:040000001EEF00F0FF
:100008005D82F29E9D9A9EAA11D0A8EC15F0026E10
:100018000A0E0218D8B45BC05CF00D0E0218D8B4F2
:1000280005D00A0E0218D8A402C05BF09D8AF28E91
:100038005D92110065EF14F0530E0001646F000E1D
:10004800656FD6D3250E7C19D8B409D04FC0D9FF17
:1000580050C0DAFF7CC0DFFF4F4A502AC9D3000ED8
:100068006B6F000E6A6F51C0F6FF52C0F7FF0800B1
:10007800F5502E0AD8A42FD06B8D514A522A000E63
:100088007B6F000E7A6F1CD07AC003F07BC004F03F
:10009800000E066E0A0E056E95EC15F051C0F6FFBF
:1000A80052C0F7FF0800F5500326000E0422D00EB8
:1000B800032400017A6FFF0E04207B6F514A522AF5
:1000C80051C0F6FF52C0F7FF0800F550B8EC15F024
:1000D800D8A036D0D9D7000E7B6F000E7A6F6B8907
:1000E8002FD06B853FD07A517B11D8B417D07A5175
:1000F8007B11D8A413D07AC068F07BC069F00ED009
:1001080066C0D9FF67C0DAFF4FC0E1FF50C0E2FF09
:10011800DFCFE7FF664B672B4F4A502A6807D8A006
:1001280069076829EDE16929D8B462D3E9D77C0E5B
:10013800666F000E676F000E696F010E686FD3D788
:1001480051C0F6FF52C0F7FF514A522A0800F5CFB6
:100158007CF000017C51000AD8B456D3660AD8B4A2
:10016800C0D7E5D7070E6B15D8B40DD36BA904D04B
:10017800000E7B6F060E7A6F64C0D9FF65C0DAFF88
:10018800DECF76F0DECF77F0DECF78F0DECF79F015
:10019800040E6427000E652379AF15D076C003F0EE
:1001A80077C004F078C005F079C006F07EEC15F051
:1001B80003C076F004C077F005C078F006C079F087
:1001C800030E00016A13000E716F000E706F76C087
:1001D80003F077C004F078C005F079C006F0000E8F
:1001E800076E000E086E000E096E000E0A6E7FEC98
:1001F80012F0D8B083D0000178357935820F706F4E
:10020800716BFF0E71237007D8A0710770C003F0DF
:1002180071C004F0000E066E030E056E95EC15F025
:1002280003C070F004C071F070C009F071C00AF02A
:10023800000E0C6E0A0E0B6EC4EC12F009C070F0C2
:100248000AC071F0000171AF03D07007D8A0710720
:10025800705100080FEC04F02AC072F02BC073F044
:100268002CC074F02DC075F072C011F073C012F07C
:1002780074C013F075C014F076C015F077C016F08E
:1002880078C017F079C018F0F7EC05F011C072F0DB
:1002980012C073F013C074F014C075F072C003F08C
:1002A80073C004F074C005F075C006F0000E076E48
:1002B800000E086E800E096E3F0E0A6EBAEC11F041
:1002C800D8B005D000017007D8A0710717D072C048
:1002D80003F073C004F074C005F075C006F0000E9A
:1002E800076E000E086E200E096E410E0A6EBAECFB
:1002F80011F0D8A003D00001704B712B00017BBF17
:1003080006D07B5121E10D0E7A5DD8B01DD076C0A4
:1003180037F077C038F078C039F079C03AF07A51C0
:1003280026EC09F02AC03BF02BC03CF02CC03DF075
:100338002DC03EF0A0EC07F037C076F038C077F05B
:1003480039C078F03AC079F0000171BF06D0715118
:1003580031E10A0E705DD8B02DD076C003F077C0B9
:1003680004F078C005F079C006F0000E076E000EA4
:10037800086E000E096E000E0A6E7FEC12F0D8B0FF
:1003880064D076C02AF077C02BF078C02CF079C002
:100398002DF022EC12F02A502B102C102D10D8A47E
:1003A80054D0000171BF51D0715104E1020E705D4B
:1003B800D8A04BD072C003F073C004F074C005F02D
:1003C80075C006F05F0E076E700E086E890E096E16
:1003D800400E0A6EBAEC11F0D8B003D00001F70E47
:1003E80002D00001F80E7027FF0E712370510FEC38
:1003F80004F02AC072F02BC073F02CC074F02DC02A
:1004080075F076C003F077C004F078C005F079C0C5
:1004180006F072C007F073C008F074C009F075C028
:100428000AF040EC11F003C06CF004C06DF005C098
:100438006EF006C06FF0000E0001766F000E776F49
:10044800000E786F000E796F3CD076C02AF077C026
:100458002BF078C02CF079C02DF022EC12F02AC0D5
:100468006CF02BC06DF02CC06EF02DC06FF076C014
:1004780047F077C048F078C049F079C04AF06CC0BE
:1004880003F06DC004F06EC005F06FC006F0000EFA
:1004980097EC0FF003C04BF004C04CF005C04DF0D2
:1004A80006C04EF03AEC15F047C076F048C077F039
:1004B80049C078F04AC079F0000E0001716F000E53
:1004C800706F010E7C6F0A0E7C19D8B418D07C515D
:1004D800040D5B0EF324F66E7F0EF420F76E090010
:1004E800F5506C5D0900F5506D590900F5506E59CD
:1004F8000900F5506F59D8A002D07C2BE4D7030E21
:100508006A15576E000E6B15586E57505810D8B4B0
:1005180051D04FC0D9FF50C0DAFF2D0EDF6E4F4AC1
:10052800502A48D06CC003F06DC004F06EC005F0CE
:100538006FC006F07C51040D5B0EF324F66E7F0E3F
:10054800F420F76E0900F5CF07F00900F5CF08F0A1
:100558000900F5CF09F00A00F5CF0AF006EC13F010
:1005680003C072F004C073F005C074F006C075F0E3
:1005780072C003F073C004F074C005F075C006F0D3
:100588000A0E076E000E086E000E096E000E0A6E47
:1005980032EC14F003C072F004C073F005C074F0BC
:1005A80006C075F000017251300F4FC0D9FF50C01E
:1005B800DAFFB4D77C077C29D8B40CD0B3D74FC0A6
:1005C800D9FF50C0DAFF300EDF6E4F4A502A70074D
:1005D800D8A0710771BF05D07151F1E17005D8B08D
:1005E800EED77BBF09D07B5104E1090E7A5DD8A014
:1005F80003D0080E7C6F02D07AC07CF07C517A5F01
:10060800000E7B5B7C51D8B408D04FC0D9FF50C0D6
:10061800DAFF2E0EDF6E4F4A502A7C510FEC04F0A1
:100628002AC060F02BC061F02CC062F02DC063F0CE
:1006380076C015F077C016F078C017F079C018F0BA
:1006480060C011F061C012F062C013F063C014F012
:10065800F7EC05F011C02AF012C02BF013C02CF0F3
:1006680014C02DF022EC12F02AC06CF02BC06DF0F3
:100678002CC06EF02DC06FF070D06CC003F06DC050
:1006880004F06EC005F06FC006F07C51040D5B0EDF
:10069800F324F66E7F0EF420F76E0900F5CF07F00D
:1006A8000900F5CF08F00900F5CF09F00A00F5CFE9
:1006B8000AF006EC13F003C072F004C073F005C032
:1006C80074F006C075F072C003F073C004F074C013
:1006D80005F075C006F00A0E076E000E086E000ED3
:1006E800096E000E0A6E32EC14F003C072F004C0FA
:1006F80073F005C074F006C075F000017251300F38
:100708004FC0D9FF50C0DAFFDF6E4F4A502A6CC085
:1007180003F06DC004F06EC005F06FC006F07C51A8
:10072800040D5B0EF324F66E7F0EF420F76E0900BD
:10073800F5CF07F00900F5CF08F00900F5CF09F06B
:100748000A00F5CF0AF032EC14F003C06CF004C0D4
:100758006DF005C06EF006C06FF000017C077C29C3
:10076800D8B40CD08AD74FC0D9FF50C0DAFF300EAA
:10077800DF6E4F4A502A7A07D8A07B077A517B113F
:10078800D8B436D0F0D77A517B11D8A408D06C51A0
:100798006D116E116F11D8A402D07A4B7B2B7C514E
:1007A800576E586A7A51575C5850800A596E7B5177
:1007B800800A5958D8A00BD07C51576E586A5750A8
:1007C8007A5D7B51800A596E5850800A5958030E39
:1007D8006A15576E000E6B15586E57505810D8B4DE
:1007E80007D04FC0D9FF50C0DAFF2D0EDF6E34D4CA
:1007F80051C0F6FF52C0F7FF514A522A0800F5CF00
:100808007CF07C51D8A41ED44FC0D9FF50C0DAFF69
:10081800000EDF6E1200326E32AEF3D0326C325000
:10082800800A120FD8A088D0000E0C6E0A0E0B6E2C
:10083800000E066E640E056E3250036E046A03BE27
:100848000406FAEC13F003C009F004C00AF0C4EC83
:1008580012F0090E09260950040D270EF324F66E2E
:100868007F0EF420F76E0900F5CF15F00900F5CFDB
:1008780016F00900F5CF17F00A00F5CF18F0000EB2
:100888000C6E640E0B6E3250096E0A6A09BE0A06B7
:10089800C4EC12F0120E09260950040D270EF32499
:1008A800F66E7F0EF420F76E0900F5CF11F00900FF
:1008B800F5CF12F00900F5CF13F00A00F5CF14F0C8
:1008C800F7EC05F011C02EF012C02FF013C030F075
:1008D80014C031F02EC011F02FC012F030C013F048
:1008E80031C014F0000E066E0A0E056E3250036E0B
:1008F800046A03BE0406FAEC13F00350040D270E35
:10090800F324F66E7F0EF420F76E0900F5CF15F08C
:100918000900F5CF16F00900F5CF17F00A00F5CF5A
:1009280018F0F7EC05F011C02AF012C02BF013C034
:100938002CF014C02DF012003250800A750FD8A088
:100948004BD0000E0C6E0A0E0B6E3250096E0A6AFE
:1009580009BE0A06C4EC12F0090E09260950040D56
:10096800270EF324F66E7F0EF420F76E0900F5CFFC
:1009780011F00900F5CF12F00900F5CF13F00A00C5
:10098800F5CF14F0000E066E0A0E056E3250036E97
:10099800046A03BE0406FAEC13F00350040D270E94
:1009A800F324F66E7F0EF420F76E0900F5CF15F0EC
:1009B8000900F5CF16F00900F5CF17F00A00F5CFBA
:1009C80018F0F7EC05F011C02AF012C02BF013C094
:1009D8002CF014C02DF012003250040D270EF32411
:1009E800F66E7F0EF420F76E0900F5CF2AF00900A5
:1009F800F5CF2BF00900F5CF2CF00A00F5CF2DF03C
:100A080012003250800A120FD8A088D0000E0C6E47
:100A18000A0E0B6E000E066E640E056E3250036EE3
:100A2800046A03BE0406FAEC13F003C009F004C01C
:100A38000AF0C4EC12F0090E09260950040DF30E51
:100A4800F324F66E7E0EF420F76E0900F5CF15F04C
:100A58000900F5CF16F00900F5CF17F00A00F5CF19
:100A680018F0000E0C6E640E0B6E3250096E0A6A96
:100A780009BE0A06C4EC12F0120E09260950040D2C
:100A8800F30EF324F66E7E0EF420F76E0900F5CF10
:100A980011F00900F5CF12F00900F5CF13F00A00A4
:100AA800F5CF14F0F7EC05F011C02EF012C02FF0BE
:100AB80013C030F014C031F02EC011F02FC012F066
:100AC80030C013F031C014F0000E066E0A0E056E29
:100AD8003250036E046A03BE0406FAEC13F00350A6
:100AE800040DF30EF324F66E7E0EF420F76E090063
:100AF800F5CF15F00900F5CF16F00900F5CF17F07E
:100B08000A00F5CF18F0F7EC05F011C02AF012C072
:100B18002BF013C02CF014C02DF012003250800AB4
:100B2800750FD8A04BD0000E0C6E0A0E0B6E32500B
:100B3800096E0A6A09BE0A06C4EC12F0090E0926F3
:100B48000950040DF30EF324F66E7E0EF420F76EB2
:100B58000900F5CF11F00900F5CF12F00900F5CF23
:100B680013F00A00F5CF14F0000E066E0A0E056E9B
:100B78003250036E046A03BE0406FAEC13F0035005
:100B8800040DF30EF324F66E7E0EF420F76E0900C2
:100B9800F5CF15F00900F5CF16F00900F5CF17F0DD
:100BA8000A00F5CF18F0F7EC05F011C02AF012C0D2
:100BB8002BF013C02CF014C02DF012003250040D8D
:100BC800F30EF324F66E7E0EF420F76E0900F5CFCF
:100BD8002AF00900F5CF2BF00900F5CF2CF00A0018
:100BE800F5CF2DF012001450800B1D6E14501424F4
:100BF800236E13BE23802350D8B40DD02328D8A445
:100C080008D0000E116E000E126E000E136E000E4C
:100C1800146E138E08D0000E116E000E126E000EA8
:100C2800136E000E146E1850800B1D1A18501824DD
:100C3800226E17BE22802250D8B40DD02228D8A404
:100C480008D0000E156E000E166E000E176E000E00
:100C5800186E178E08D0000E156E000E166E000E58
:100C6800176E000E186E2250D8B403D02350D8A4A3
:100C780009D0000E116E000E126E000E136E000EDB
:100C8800146E120017501102F3CF28F0F4CF29F098
:100C980028501E6E1F6A206A216A2950246E256A10
:100CA800266A276A16501202F3CF28F0F4CF29F0EB
:100CB80028501E26000E1F222022212229502426D9
:100CC800000E25222622272215501302F3CF28F0E2
:100CD800F4CF29F028501E26000E1F2220222122A0
:100CE80029502426000E25222622272220C021F062
:100CF8001FC020F01EC01FF01E6A15501202F3CF4D
:100D080028F0F4CF29F028501E2629501F22000E63
:100D18002022000E212216501102F3CF28F0F4CF22
:100D280029F028501E2629501F22000E2022000ECE
:100D3800212220C021F01FC020F01EC01FF01E6A13
:100D480015501102F3CF28F0F4CF29F028501E26B1
:100D580029501F22000E2022000E212217501202B5
:100D6800F3CF28F0F4CF29F0285024262950252243
:100D7800000E2622000E272216501302F3CF28F069
:100D8800F4CF29F02850242629502522000E2622A7
:100D9800000E272217501302F3CF28F0F4CF29F0C2
:100DA8002850196E29501A6E1B6A1C6A1BC01CF049
:100DB8001AC01BF019C01AF0196A195024261A50C3
:100DC80025221B5026221C5027221EC019F01FC0A6
:100DD8001AF020C01BF021C01CF0190E05D0D890C5
:100DE8001C321B321A321932E82EF9D71950242630
:100DF8001A5025221B5026221C50272220C021F0E1
:100E08001FC020F01EC01FF01E6A225023C019F018
:100E18001A6A1926000E1A22820E1924286EFF0E4D
:100E28001A20296E0FD0D890243625362636273634
:100E380021BE2480D8901E361F362036213628063B
:100E4800D8A0290626AEEFD7000E226E21AE17D005
:100E5800FF0E1E14196EFF0E1F141A6EFF0E2014BB
:100E68001B6E7F0E21141C6E19501A101B101C10BB
:100E7800D8B403D0010E226E02D024B0FBD7225082
:100E8800D8B41FD0010E2426000E252226222722A0
:100E980027A017D024C019F025C01AF026C01BF0CF
:100EA80027C01CF01C341C321B321A32193219C0EC
:100EB80024F01AC025F01BC026F01CC027F0284AD1
:100EC800292A29BE0DD0295003E12828D8A008D006
:100ED800000E246E000E256E800E266E7F0E20D02A
:100EE80029BE05D029500EE12804D8B00BD0000E39
:100EF800246E000E256E000E266E000E276E000E64
:100F08001D6E0FD028C023F0FF0E2416FF0E2516E5
:100F18007F0E2616000E271623B0268ED890233073
:100F2800276E1D50271224C011F025C012F026C0CC
:100F380013F027C014F012003A50800B436E3A5059
:100F48003A24456E39BE45804550D8B40DD0452861
:100F5800D8A408D0000E376E000E386E000E396E19
:100F6800000E3A6E398E06D0000E376E000E386EBF
:100F7800000E396E000E3A6E3E50800B446E4350A0
:100F88004418D8A4438C3E503E24446E3DBE448051
:100F98004450D8B40DD04428D8A408D0000E3B6ED5
:100FA800000E3C6E000E3D6E000E3E6E3D8E06D06D
:100FB800000E3B6E000E3C6E000E3D6E000E3E6E47
:100FC8004550445CD8B022D043AC02D0800E431ABE
:100FD80045C046F044C045F046C044F037C046F02E
:100FE8003BC037F046C03BF038C046F03CC038F054
:100FF80046C03CF039C046F03DC039F046C03DF02F
:101008003AC046F03EC03AF046C03EF0000E466E8A
:10101800455044C03FF0406A3F5E000E405A40BE13
:101028002CD0405004E11A0E3F5CD8A026D037508F
:10103800381039103A10D8B402D0010E01D0000E81
:10104800466E000E376E000E386E000E396E000EBA
:101058003A6E44C045F015D046A005D0D890463029
:101068000109466E02D0D890463237B0468E3A34DF
:101078003A32393238323732452A4450455CD8A0A2
:10108800EBD743BC28D04550D8A409D0000E376E02
:10109800000E386E000E396E000E3A6E12003B508C
:1010A80037263C5038223D5039223E503A223AA049
:1010B80071D046A005D0D89046300109466E02D0BE
:1010C800D890463237B0468E3A343A3239323832CE
:1010D8003732452A5FD03B50375C3C5038583D503A
:1010E80039583A50800A3F6E3E50800A3F58D8B06F
:1010F80025D037503B5C3F6E38503C58406E3950D5
:101108003D58416E3A503E58426EFF0E3F24376EAE
:10111800FF0E4020386EFF0E4120396EFF0E422030
:101128003A6E800E431A466C4650D8A40FD0010E72
:101138003726000E382239223A2208D03B50375E33
:101148003C50385A3D50395A3E503A5A3750381068
:1011580039103A10D8A41CD04650D8A419D0000E83
:10116800376E000E386E000E396E000E3A6E1200A1
:10117800D8903736383639363A3646BE378046A0A4
:1011880002D0D88001D0D89046364550D8A445061C
:1011980039AEEED7000E446E46AE0BD046C03FF0D7
:1011A8007F0E3F16D8B403D0010E446E02D037B07C
:1011B800FBD74450D8B420D0010E3726000E382271
:1011C80039223A223AA018D037C03FF038C040F050
:1011D80039C041F03AC042F04234423241324032E2
:1011E8003F323FC037F040C038F041C039F042C00C
:1011F8003AF04528D8A4452A4528D8B403D0455004
:10120800D8A40DD0000E376E000E386E000E396E61
:10121800000E3A6E4550D8A402D0000E436E45A089
:1012280002D0398E01D0399ED89045303A6E43BEEF
:101238003A8E37C037F038C038F039C039F03AC084
:101248003AF01200366E6D0E3664ACD0000E156E94
:10125800000E166E000E176E3F0E186E000E0B6E07
:10126800640E0A6E36C008F0096AC1EC14F0D89012
:1012780008360936D89008360936480E0826000E72
:101288000922270E0824F66E7F0E0920F76E090042
:10129800F5CF11F00900F5CF12F00900F5CF13F0E2
:1012A8000A00F5CF14F0F7EC05F011C032F012C0C7
:1012B80033F013C034F014C035F0000E0B6E0A0E74
:1012C8000A6E000E066E640E056E36C003F0046AE0
:1012D8005DEC15F003C008F004C009F0C1EC14F08F
:1012E800D89008360936D89008360936240E0826CC
:1012F800000E0922270E0824F66E7F0E0920F76ECD
:101308000900F5CF15F00900F5CF16F00900F5CF63
:1013180017F00A00F5CF18F032C011F033C012F000
:1013280034C013F035C014F0F7EC05F011C02EF0FE
:1013380012C02FF013C030F014C031F02EC011F0DD
:101348002FC012F030C013F031C014F0000E066E3A
:101358000A0E056E36C003F0046A5DEC15F0D890ED
:1013680003360436D89003360436270E0324F66E67
:101378007F0E0420F76E0900F5CF15F00900F5CFB0
:1013880016F00900F5CF17F00A00F5CF18F0F7ECC2
:1013980005F011C02AF012C02BF013C02CF014C0B5
:1013A8002DF012000A0E36646BD0000E156E000E7A
:1013B800166E000E176E3F0E186E000E0B6E0A0E9C
:1013C8000A6E36C008F0096AC1EC14F0D8900836E5
:1013D8000936D89008360936240E0826000E092248
:1013E800270E0824F66E7F0E0920F76E0900F5CF48
:1013F80011F00900F5CF12F00900F5CF13F00A003B
:10140800F5CF14F0F7EC05F011C032F012C033F04C
:1014180013C034F014C035F032C011F033C012F0EC
:1014280034C013F035C014F0000E066E0A0E056EB7
:1014380036C003F0046A5DEC15F0D8900336043624
:10144800D89003360436270E0324F66E7F0E042048
:10145800F76E0900F5CF15F00900F5CF16F0090071
:10146800F5CF17F00A00F5CF18F0F7EC05F011C02A
:101478002AF012C02BF013C02CF014C02DF012006B
:101488003650040D270EF324F66E7F0EF420F76E07
:101498000900F5CF11F00900F5CF12F00900F5CFDA
:1014A80013F00A00F5CF14F0000E156E000E166E3C
:1014B800000E176E3F0E186EF7EC05F011C02AF0FB
:1014C80012C02BF013C02CF014C02DF012001450D1
:1014D800800B216E14501424286E13BE28802850C7
:1014E800D8B40DD02828D8A408D0000E116E000E4C
:1014F800126E000E136E000E146E138E06D0000EC0
:10150800116E000E126E000E136E000E146E18503F
:10151800800B211A18501824296E17BE29802950CB
:10152800D8B40DD02928D8A408D0000E156E000E06
:10153800166E000E176E000E186E178E06D0000E6F
:10154800156E000E166E000E176E000E186E1550F2
:10155800161017101810D8A417D0000E116E000E10
:10156800126E000E136E000E146E800E13127F0E94
:1015780014122150141211C011F012C012F013C02D
:1015880013F014C014F012002850D8A409D0000E8B
:10159800116E000E126E000E136E000E146E120005
:1015A800295028C019F01A6A195E000E1A5A7F0EBF
:1015B8001924226E000E1A20236E11C01DF012C0CD
:1015C8001EF013C01FF014C020F0000E116E000EA4
:1015D800126E000E136E000E146E000E246E000EB6
:1015E800256E000E266E000E276E000E296E28D07E
:1015F8002950D8B411D0D8901D361E361F36203643
:10160800D890113612361336143627BE1180D8906A
:10161800243625362636273615501D5C16501E589A
:1016280017501F5818502058D8A009D0278C15508B
:101638001D5E16501E5A17501F5A1850205A292A34
:10164800190E2964D5D71D501E101F102010D8B4AC
:1016580011D024800FD0D890113612361336143694
:1016680027BE1180D89024362536263627362206FE
:10167800D8A0230613AEEFD7000E296E27AE17D0D9
:10168800FF0E2414196EFF0E25141A6EFF0E261471
:101698001B6E7F0E27141C6E19501A101B101C107D
:1016A800D8B403D0010E296E02D011B0FBD729504F
:1016B800D8B41FD0010E1126000E122213221422B4
:1016C80014A017D011C019F012C01AF013C01BF0E3
:1016D80014C01CF01C341C321B321A32193219C0C7
:1016E80011F01AC012F01BC013F01CC014F0224AEB
:1016F800232A23BE10D0235003E12228D8A00BD0E0
:10170800000E236E2268000E116E000E126E000E7F
:10171800136E000E146E23BE05D0235011E122046F
:10172800D8B00ED0000E236E000E226E000E116E81
:10173800000E126E000E136E000E146E000E216E57
:1017480022C028F028A002D0138E01D0139ED89072
:101758002830146E0ED7E40E056E7F0E066EEAEC86
:1017680014F020EED4F010EE60F0070EDBCFE3FFAC
:10177800E806FCE220EECCF010EE68F0070EDBCFB6
:10178800E3FFE806FCE2E00E0E6E070E0F6E000E99
:10179800106E000E116E600E126E000E136E080EA3
:1017A800146E000E156E37EC10F00009D8A406D0A0
:1017B800840E056E7F0E066EEAEC14F0000E000132
:1017C800996F000E9A6F000E9B6F000E9C6F200E93
:1017D800966F000E986F000E936F000E926F1A0EA0
:1017E800346EF80EE82EFED7342EFCD700D0990EB2
:1017F8000C6E000E0D6E700E0E6E000E0F6E960EB5
:10180800106E000E116E980E126E000E136EEAEC3A
:101818000EF00009D8B44BD0E80E0001991947E141
:10182800070E9A199B119C11D8A441D0100E70195B
:10183800D8A43DD0620E7219D8A439D0F10E73190C
:10184800D8A435D0E00E0E6E070E0F6E000E106E87
:10185800000E116E680E126E000E136E080E146ED6
:10186800000E156E37EC10F00009D8A406D0830ED0
:10187800056E7F0E066EEAEC14F0FA0E0001712573
:10188800906F916BFF0E9123F20E056E7F0E066E20
:10189800EAEC14F000017551DCEC15F0000176510A
:1018A800DCEC15F000017751DCEC15F012D00001EA
:1018B800924B932B93BF93D7935104E1640E925D9F
:1018C800D8A08DD7C40E056E7F0E066EEAEC14F014
:1018D8001200000E0001956F000E946F1A0E346E00
:1018E800F80EE82EFED7342EFCD700D0990E0C6ED9
:1018F800000E0D6E700E0E6E000E0F6E960E106EB0
:10190800000E116E980E126E000E136EEAEC0EF0B9
:101918000009D8B424D0E80E0001991920E1070E77
:101928009A199B119C11D8A41AD0010E976F700EAA
:101938009725D96EDA6A000EDA22DF50DCEC15F052
:1019480000019007D8A0910791BF1BD0915103E1E6
:101958009005D8A016D0972B070E9765E8D70001F9
:10196800944B952B95BFBAD7955104E1640E945DBD
:10197800D8A0B4D7C40E056E7F0E066EEAEC14F03C
:1019880012000A0EDCEC15F0120005C00AF006C0C1
:101998000BF00750D8A44AD003C0D9FF04C0DAFF1F
:1019A800DF50086ED8900836D8900836D89008349A
:1019B8000AC0D9FF0BC0DAFFDF6E20EE01F00A5033
:1019C800D9260B50DA2203C0E1FF04C0E2FFE7503A
:1019D800086E050E096ED8900832092EFCD70850FB
:1019E800DF6E034A042A03C0D9FF04C0DAFFDF50C0
:1019F800086E050E096ED8900832092EFCD70AC069
:101A0800D9FF0BC0DAFF0850DF1220EE02F00A50AF
:101A1800D9260B50DA22000EDF6E20EE03F00A50B2
:101A2800D9260B50DA22000EDF6E120020EE02F0EB
:101A38000A50D9260B50DA2203C0E1FF04C0E2FFA6
:101A4800E750086E050E096ED8900836092EFCD7A7
:101A58000850DF6E20EE03F00A50D9260B50DA2228
:101A680003C0E1FF04C0E2FFE750086ED8900832D7
:101A7800D8900832D8900830DF6E034A042A03C091
:101A8800D9FF04C0DAFFDF50086E030E081620EEF7
:101A980002F00A50D9260B50DA220850DF1203C090
:101AA800D9FF04C0DAFFDF50086ED8900832D8900A
:101AB8000832D89008321C0E081620EE02F00A50A0
:101AC800D9260B50DA220850DF12034A042A03C031
:101AD800D9FF04C0DAFF10EE01F00A50E1260B50DE
:101AE800E222DFCFE7FF034A042A03C0D9FF04C07C
:101AF800DAFF0AC0E1FF0BC0E2FFDFCFE7FF120009
:101B0800E40E056E7F0E066EEAEC14F021EEB4F0DA
:101B180011EEA0F0070EDBCFE3FFE806FCE2650E4E
:101B28000E6E070E0F6E000E106E000E116EA00ED8
:101B3800126E010E136E080E146E000E156E37EC41
:101B480010F00009D8A406D0840E056E7F0E066E2C
:101B5800EAEC14F0000E0101B06F000EB16F000E38
:101B6800B26F000EB36F200EAC6F000EAF6F000E99
:101B7800AE6F000EAD6F340E5A6EF20EE82EFED721
:101B88005A2EFCD7B00E0C6E010E0D6E800E0E6E26
:101B9800010E0F6EAC0E106E010E116EAF0E126EAE
:101BA800010E136EEAEC0EF00009D8B44DD0CF0E3A
:101BB8000101B01949E1070EB119B211B311D8A446
:101BC80043D0040E8019D8A43FD0620E8119D8A43E
:101BD8003BD08451036E046A056A066A000E97ECCE
:101BE8000FF003C011F004C012F005C013F006C0D6
:101BF80014F0000E156E000E166E000E176E400ED5
:101C0800186E6BEC0AF011C0A8F112C0A9F113C04C
:101C1800AAF114C0ABF1000E4F6E010E506E9C0E6F
:101C2800516E7F0E526EA8C153F0A9C154F0AAC1DB
:101C380055F0ABC156F020EC00F0000E056E010E19
:101C4800066EEAEC14F012000101AD4BAE2BAEBFEC
:101C580092D7AE5104E1640EAD5DD8A08CD7C50E05
:101C6800056E7F0E066EEAEC14F01200050E0C6E7F
:101C7800000E0D6E0950D8A43AD00CC0D9FF0DC083
:101C8800DAFFDF500A6ED8900A32D8900A32D8901C
:101C98000A3003C0D9FF04C0DAFFDF6E20EE01F07E
:101CA8000C50D9260D50DA22DF500A6E050E0B6E45
:101CB800D8900A360B2EFCD703C0D9FF04C0DAFF30
:101CC8000A50DF12034A042A0CC0D9FF0DC0DAFFFC
:101CD800DF500A6E050E0B6ED8900A360B2EFCD715
:101CE8000A5003C0D9FF04C0DAFFDF6E120020EEED
:101CF80002F00C50D9260D50DA22DF500A6E050E7C
:101D08000B6ED8900A320B2EFCD70A5003C0D9FFAD
:101D180004C0DAFFDF6E20EE03F00C50D9260D5018
:101D2800DA22DF500A6ED8900A36D8900A36D89050
:101D38000A3603C0D9FF04C0DAFF0A50DF12034A8B
:101D4800042A20EE02F00C50D9260D50DA22DF507A
:101D58000A6ED8900A36D8900A36D8900A34E00B22
:101D680003C0D9FF04C0DAFFDF6E03C0D9FF04C087
:101D7800DAFF000EDB8620EE02F00C50D9260D505B
:101D8800DA22DF500A6E030E0A1603C0D9FF04C018
:101D9800DAFF0A50DF12034A042A20EE01F00C5041
:101DA800D9260D50DA2203C0E1FF04C0E2FFDFCFDD
:101DB800E7FF034A042A0CC0D9FF0DC0DAFF03C0AD
:101DC800E1FF04C0E2FFDFCFE7FF1200000E0001D1
:101DD800CA6F60AE12D0779071AE07D012C0D9FF2B
:101DE80013C0DAFF000EDB86719E60A002D0CA81A4
:101DF80002D00001CA91600E1CD00E0190AF1DD018
:101E0800779271AC07D012C0D9FF13C0DAFF000E69
:101E1800DB86719C0F013051070B0001CA6F020E5F
:101E2800CA6106D012C0D9FF13C0DAFF000EDB8EDC
:101E3800300E176E0F0E186E02D0000E120017C06B
:101E480014F018C015F012C0D9FF13C0DAFF000E45
:101E5800DF6E20EE05F01750D9261850DA22DF5031
:101E6800196E19500F0B10C0D9FF11C0DAFFDF6EC1
:101E780019AC06D012C0D9FF13C0DAFF000EDB8CF4
:101E880020EE02F01750D9261850DA22DF50196ECA
:101E980019A608D012C0D9FF13C0DAFF000EDB8ADA
:101EA800010E01D0000E196E010E1724036E000EEC
:101EB8001820046E0CC005F00DC006F019C007F01C
:101EC800C9EC0CF0060E1726000E182210C0D9FF18
:101ED80011C0DAFFDF50196E000E166E0FD017C052
:101EE800D9FF18C0DAFF0EC0E1FF0FC0E2FFDFCF55
:101EF800E7FF174A182A0E4A0F2A162A1950165CA5
:101F0800D8A0EDD777AE07D012C0D9FF13C0DAFF3B
:101F1800000EDB88779E14C0D9FF15C0DAFF7F0E4C
:101F2800DF16010E12000B6E0B50D8A406AE1AD0A5
:101F380003C007F004C008F005C009F006C00AF0A5
:101F4800071E081E091E0A1E072A000E082209225B
:101F58000A2207C00DF008C00EF009C00FF00AC031
:101F680010F008D003C00DF004C00EF005C00FF04B
:101F780006C010F00350041005100610D8A409D0AC
:101F8800000E036E000E046E000E056E000E066E47
:101F98001200960E0C6E06D00C2AD89010320F3212
:101FA8000E320D32000E0D14076E000E0E14086E60
:101FB800000E0F14096EFE0E10140A6E075008105A
:101FC80009100A10D8B40DD0E7D70C2A010E0D2637
:101FD800000E0E220F221022D89010320F320E322D
:101FE8000D32000E0D14076E000E0E14086E000E52
:101FF8000F14096EFF0E10140A6E0750081009100E
:102008000A10D8B407D0E1D70C06D8900D360E3692
:102018000F3610360FBE03D0020E0C60F5D70CA099
:102028000F9ED8900C320CC007F0086A096A0A6A39
:1020380007C00AF0096A086A076A07500D120850B3
:102048000E1209500F120A5010120B50D8A406AEE7
:1020580001D0108E0DC003F00EC004F00FC005F0C3
:1020680010C006F01200200E176E0F0E186E100E1C
:10207800196E0F0E1A6E000E1B6E0F0E1C6E000EE0
:102088002D6E2D50020D170EF324D96E000EF4207C
:10209800DA6EDECF2EF0DDCF2FF02EC02AF02FC063
:1020A8002BF02EC0D9FF2FC0DAFFDFB660D02EC0CC
:1020B800D9FF2FC0DAFFFC0EDF1615C016F0030E8D
:1020C80016162EC0D9FF2FC0DAFF1650DF1215AC36
:1020D80004D0145040092C6E02D014C02CF020EE0D
:1020E80005F02E50D9262F50DA222CC0DFFF15AA72
:1020F80002D0010E01D0000E2C6E010E2E24036EAC
:10210800000E2F20046E0EC005F00FC006F010C0A0
:1021180007F011C008F02CC009F03AEC0EF0060EDA
:102128002E26000E2F22000E296E0FD012C0D9FFC6
:1021380013C0DAFF2EC0E1FF2FC0E2FFDFCFE7FFB9
:10214800124A132A2E4A2F2A292A1450295CD8A069
:10215800EDD72AC0D9FF2BC0DAFFDFB406D02AC0DA
:10216800D9FF2BC0DAFF000EDB86010E12002D2AE4
:10217800010E2D6486D7000E120005C00BF00C6A04
:102188000D6A04340B3601E30C800B50136E1350A8
:10219800D8A409D0000E036E000E046E000E056E62
:1021A800000E066E120009C00BF00C6A0D6A0834A6
:1021B8000B3601E30C800B50126E1250D8B4EAD7DC
:1021C800048EFF0E0316FF0E0416000E0516088E69
:1021D800FF0E0716FF0E0816000E0916000E0E6EEB
:1021E800000E0F6E000E106E000E116E7F0E135E45
:1021F8001250980F135E180E126ED8900E360F36C6
:10220800103611360750035C085004580950055819
:10221800D8A007D00750035E0850045A0950055A41
:102228000E80D890033604360536122EE6D713AE44
:102238000DD01350800A970FD8A0ACD7D890113280
:1022480010320F320E32133EF9D70DD0170E136429
:1022580007D0A0D7D8900E360F3610361136130691
:102268001350D8A4F7D70EC003F00FC004F010C065
:1022780005F011C006F0120005340634106E105037
:10228800D8A409D0000E036E000E046E000E056E71
:10229800000E066E120009340A340F6E0F50D8B4BF
:1022A800F1D7058EFF0E0316FF0E0416FF0E051656
:1022B800000E0616098EFF0E0716FF0E0816FF0EF3
:1022C8000916000E0A16000E0B6E000E0C6E000E9C
:1022D8000D6E000E0E6E7F0E105E0F50A00F105E7A
:1022E800200E0F6ED8900B360C360D360E36075072
:1022F800035C08500458095005580A500658D8A0DD
:1023080009D00750035E0850045A0950055A0A506C
:10231800065A0B80D89003360436053606360F2E3B
:10232800E1D710AE0DD01050800A9F0FD8A0AAD7C1
:10233800D8900E320D320C320B32103EF9D70DD038
:102348001F0E106407D09ED7D8900B360C360D366A
:102358000E3610061050D8A4F7D70BC003F00CC0E7
:1023680004F00DC005F00EC006F01200000E0314B4
:102378000B6E000E04140C6E800E05140D6E7F0E8D
:1023880006140E6E0B500C100D100E10D8A408D0A9
:10239800000E036E000E046E000E056E000E066E33
:1023A800000E07140B6E000E08140C6E800E091434
:1023B8000D6E7F0E0A140E6E0B500C100D100E10C1
:1023C800D8A408D0000E076E000E086E000E096E25
:1023D800000E0A6E06AE09D0036C041ED8B0042A9B
:1023E800051ED8B0052A800E06560AAE09D0076C1D
:1023F800081ED8B0082A091ED8B0092A800E0A5625
:10240800000E031A000E041A000E051A800E061A92
:10241800000E071A000E081A000E091A800E0A1A72
:102428000750035C08500458095005580A500658CC
:10243800D8B002D0D8901200D88012002C342D3495
:10244800336E3350D8A409D0000E2A6E000E2B6EBE
:10245800000E2C6E000E2D6E12002AC02EF02BC01E
:102468002FF02CC030F02DC031F0200E05D0D890C0
:10247800313230322F322E32E82EF9D72E50326ECA
:102488002C8EFF0E2A16FF0E2B16FF0E2C16000E92
:102498002D16960E335E33AE0DD03350800A970F4B
:1024A800D8A0D2D7D8902D322C322B322A32333EB4
:1024B800F9D70DD01F0E336407D0C6D7D8902A3667
:1024C8002B362C362D3633063350D8A4F7D7325056
:1024D800D8B408D02D1E2C1E2B1E2A6C000E2B22C1
:1024E8002C222D222AC02AF02BC02BF02CC02CF035
:1024F8002DC02DF01200000E03140B6E000E0414F4
:102508000C6E800E05140D6E7F0E06140E6E0B50A9
:102518000C100D100E10D8A408D0000E036E000E7B
:10252800046E000E056E000E066E000E07140B6E8C
:10253800000E08140C6E800E09140D6E7F0E0A141E
:102548000E6E0B500C100D100E10D8A408D0000EF3
:10255800076E000E086E000E096E000E0A6E075018
:1025680003180AE10850041807E10950051804E1A6
:102578000A500618D8B402D0D8901200D880120099
:10258800000E0E6E0CAE06D00B6C0C1ED8B00C2ACA
:10259800010E0E6E0AAE06D0096C0A1ED8B00A2AC1
:1025A800010E0E1A000E106E000E0F6E0B500C105E
:1025B800D8B41CD0010E0D6E04D0D8900B360C3652
:1025C8000D2A0CAEFAD7D8900F3610360B50095C8E
:1025D8000C500A58D8A005D00B50095E0C500A5A66
:1025E8000F80D8900C320B320D2EEDD70E50D8B488
:1025F80004D00F6C101ED8B0102A0FC009F010C0FC
:102608000AF01200000E0B6E000E0C6E000E0D6E1E
:10261800000E0E6E0750081009100A10D8B42AD000
:10262800010E0F6E06D0D8900736083609360A36DE
:102638000F2A0AAEF8D7D8900B360C360D360E3660
:102648000750035C08500458095005580A500658AA
:10265800D8A009D00750035E0850045A0950055AFB
:102668000A50065A0B80D8900A32093208320732CB
:102678000F2EE1D70BC003F00CC004F00DC005F01D
:102688000EC006F012005C50D8B438D0000E046EAC
:10269800010E036E94EC14F0730E5C18D8A403D0EA
:1026A80084EC0DF021D0720E5C18D8A402D0FF0083
:1026B8001BD0760E5C18D8A40BD0000E316E000E1D
:1026C800306E000E336E010E326EAFEC0BF00CD094
:1026D800B00E056E7F0E066EEAEC14F05C50DCEC72
:1026E80015F00A0EDCEC15F0060E00019D6F300E99
:1026F800E82EFED79D2FFCD700F0FF00000E5C6E81
:102708001200000E046E020E036E94EC14F0C0EC7E
:1027180013F0000E046E1A0E036E7C0E13EC15F007
:10272800000E046E020E036E94EC14F0F28EF28C1E
:10273800D50E056E7F0E066EEAEC14F0000E000151
:10274800A56F000EA46F060E0001A36F300EE82ED1
:10275800FED7A32FFCD700F047EC13F00001A44BE1
:10276800A52BA5BFF0D7100EA45D270EA559D8A09C
:10277800EAD7FF001EEF00F0800EC7EC15F0410EFF
:102788000E01436FC30E446F010E456F100E706E3D
:10279800729E729C000E606E000E0F01306F000E6C
:1027A8000E01E06F000EE16F000EE46F000EE56FA2
:1027B800000EE86F000EE96F000EEC6F000EED6F73
:1027C800000EF06F000EF16F000EF46F000EF56F43
:1027D800000EF86F000EF96FF997000EFC6F000EEF
:1027E800FD6FFD97000EC7EC15F01200000E086E85
:1027F80004AE06D0036C041ED8B0042A010E086E7D
:1028080006AE04D0056C061ED8B0062A0550061080
:10281800D8B418D0010E076E04D0D8900536063605
:10282800072A06AEFAD70550035C06500458D8A00C
:1028380004D00550035E0650045AD890063205327B
:10284800072EF1D70850D8B404D0036C041ED8B0B2
:10285800042A03C003F004C004F012000750081053
:1028680009100A10D8B424D0010E0B6E06D0D890E7
:102878000736083609360A360B2A0AAEF8D7075043
:10288800035C08500458095005580A500658D8A047
:1028980008D00750035E0850045A0950055A0A50D8
:1028A800065AD8900A320932083207320B2EE7D777
:1028B80003C003F004C004F005C005F006C006F02C
:1028C8001200DA0EF66E2B0EF76E000EF86E01EEA1
:1028D800B4F010EE08F00900F5CFEEFFE550E15036
:1028E800FAE1CA0EF66E2B0EF76E000EF86E00EEC9
:1028F800CCF010EE10F00900F5CFEEFFE550E150F6
:10290800FAE100EEA6F0260EEE6AE806FDE15C6A42
:102918005B6A5D905D92000EF86E000185EF13F022
:10292800939E000E086E000E076E1CD0818E020E5C
:10293800066E040E056EBA0EE82EFED7052EFCD7DD
:10294800062EFAD700D0819E020E066E040E056E82
:10295800BA0EE82EFED7052EFCD7062EFAD700D0E1
:10296800074A082A0350075C0850800A056E04507D
:10297800800A0558D8B01200D9D7000E0D6E000E87
:102988000C6E0A500B10D8B41CD0010E0E6E04D079
:10299800D8900A360B360E2A0BAEFAD7D8900C36DA
:1029A8000D360A50085C0B500958D8A005D00A50BB
:1029B800085E0B50095A0C80D8900B320A320E2E42
:1029C800EDD70CC008F00DC009F0120014D005C0F6
:1029D800F6FF06C0F7FFF86A0E0EF76403D008008A
:1029E800F55005D0F6CFE9FFF7CFEAFFEF50DCEC62
:1029F80015F0054A062A05C0F6FF06C0F7FFF86A73
:102A08000E0EF76403D00800F55005D0F6CFE9FFA5
:102A1800F7CFEAFFEF500009D8B41200D8D7056EF7
:102A2800000EAC6E000EAB6E05B0AC8805A202D0ED
:102A3800AC8CAB8C05B4AC8E05A602D0AB8801D0AB
:102A4800AB8A05B8AC8405BAAB8605AC02D09D8AC2
:102A580001D09D9A05AE02D09D8801D09D9803C0F3
:102A6800AFFF04507D6EAC8AAB8E1200000E4B1A7D
:102A7800000E4C1A000E4D1A800E4E1A47C037F041
:102A880048C038F049C039F04AC03AF04BC03BF072
:102A98004CC03CF04DC03DF04EC03EF0A0EC07F0FD
:102AA80037C047F038C048F039C049F03AC04AF05A
:102AB800120005500610D8B418D0010E076E04D0C5
:102AC800D89005360636072A06AEFAD70550035CB5
:102AD80006500458D8A004D00550035E0650045A86
:102AE800D89006320532072EF1D703C003F004C090
:102AF80004F012000350041005100610D8B408D0D2
:102B0800000E031A000E041A000E051A800E061A8B
:102B180003C003F004C004F005C005F006C006F0C9
:102B2800120003500502F3CF07F0F4CF08F003506A
:102B38000602F350082604500502F350082607C081
:102B480003F008C004F01200F20E0001CB17ABAC82
:102B580003D0CB91ABB0CB81ABB4CB85ABB2CB8739
:102B6800AECF01F001501200056E000E046E3A0E51
:102B7800056005D02F0E056402D0010E046E04C056
:102B880003F003301200036E1F0E6F1603506F120E
:102B98006E50E00B0318D8B41200FAD7036EACAC31
:102BA80004D0AC900001CBB3AC8003C0ADFF1200E1
:102BB800046EACA2FED700D000D00450D2EC15F0C1
:102BC800120030FF0155555555550322F1905555C2
:0A2BD800555503221DD055555555E3
:107EF200000000803F000020410000C84200007ADC
:107F02004400401C460050C3470024744980961820
:107F12004B20BCBE4C286B6E4EF9021550EC78AD6E
:107F220060CAF249710000803FCDCCCC3D0AD72314
:107F32003C6F12833A17B7D138ACC52737BD3786A5
:107F42003595BFD63377CC2B325F708930FFE6DBB5
:107F52002E08E53C1E6042A20D010000000A00004E
:107F62000064000000E803000010270000A0860162
:107F72000040420F008096980000E1F50500CA9A81
:107F82003B0A6572726F723A2063616E2073656E8E
:107F920064206661696C65640A0076616C756520AF
:107FA200736F633A20252E31662025250A006572FB
:107FB200726F723A20696E76616C696420636D64D7
:107FC20020000A6572726F723A2074696D656F756E
:107FD200740A007374617475733A2072656164790E
:107FE2000A007374617475733A20627573790A00BA
:0D7FF20076616C75652076696E3A2000009E
:020000040020DA
:08000000FFFFFFFFFFFFFFFF00
:020000040030CA
:0E0000001D137F7CFF8991FF0FC00FE00F40A2
:00000001FF
